:020000040800F2
:10000000880B002045010008750D0008E10B000871
:10001000710D0008610700081328000800000000A7
:10002000000000000000000000000000391D000872
:10003000D909000800000000B91400088B2200084C
:100040005F0100085F0100085F010008C11A000895
:100050005F0100085F0100085F0100085F01000800
:100060005F0100085F0100085F0100085F010008F0
:100070005F0100085F0100085F0100085F010008E0
:100080005F0100085F0100085F0100085F010008D0
:100090005F0100085F0100085F0100085F010008C0
:1000A0005F0100085F0100085F0100085F010008B0
:1000B0005F010008ED2200085F0100085F010008F1
:1000C0005F0100085F0100085F0100085F01000890
:1000D0005F010008DD2500085F0100085F010008DE
:1000E0005F0100085F0100085F0100085F01000870
:1000F0005F0100085F0100085F0100085F01000860
:100100005F0100085F0100085F0100085F0100084F
:100110005F0100085F0100085F0100085F0100083F
:100120005F0100085F0100085F0100085F0100082F
:10013000DFF80CD000F09EF900480047DD2A0008E7
:10014000880B00200648804706480047FEE7FEE788
:10015000FEE7FEE7FEE7FEE7FEE7FEE7FEE7FEE777
:100160008D2200083101000830B480EA010202F05B
:10017000004530F0004221F0004013D090B1C30D93
:10018000D40DC2F31601C0F31600E41A41F40001C5
:1001900040F400027D34914201D3641C00E0490028
:1001A000002C02DA30BC002070474FF4000000231E
:1001B000914201D3891A034340084FEA4101F7D124
:1001C00051B1914202D14FF0004105E002D24FF00F
:1001D000010101E06FF0010103EBC450284430BC81
:1001E00000F0B3B82DE9FE4F81EA030404F00044A7
:1001F00021F0004100944FF0000B23F0004350EA3F
:1002000001045ED052EA03045BD0C3F30A54C1F385
:100210000A552C44A4F2F3340194A0FB0254C1F318
:10022000130141F48011C3F3130343F4801301FB62
:10023000024400FB034E840A970A44EA815447EAC9
:100240008357A4FB076802958D0A05FB07854FEAD3
:10025000932C04FB0C542705029D4FEA065847EAED
:100260001637B5EB08056EEB070C870E920E47EAC2
:10027000811742EA8312A7FB0201B6EB0B0164EB84
:1002800000042B0D43EA0C335E1844EB1C50DA4695
:100290005146E7FB0201C5F313044FEA0B3343EA6F
:1002A00014534FEA0432019C43EA0603A4F10C0400
:1002B0000294009CCDE900B400F08DF803B0BDE8D5
:1002C000F08F00200146F9E796230022114600F046
:1002D00045B8C1F30A5210B5C1F3130140F2FF3320
:1002E00041F480119A4201DA002010BD40F23343FC
:1002F0009A42A2F2334203DC524200F016F810BDDB
:10030000904010BD00F0004230F000400AD0C10D16
:1003100001F56071C0F3160042EA0151C2084007BE
:1003200011437047002001467047202A04DB203A21
:1003300021FA02F00021704721FA02F3D040C2F105
:10034000200291400843194670470029A8BF704712
:10035000401C490008BF20F00100704710B4B0FAFB
:1003600080FC00FA0CF050EA010404BF10BC704796
:1003700049B1CCF1200421FA04F411FA0CF118BFB0
:10038000012121430843A3EB0C01CB1D4FEA00617F
:100390004FEA102042BF002010BC704700EBC35052
:1003A00010440029A4BF10BC7047401C490008BF7E
:1003B00020F0010010BC704710B5141E73F100044A
:1003C00008DA401C41F1000192185B411A4301D147
:1003D00020F0010010BD2DE9F04D92469B4611B171
:1003E000B1FA81F202E0B0FA80F22032904600F0D9
:1003F00053F804460F4640EA0A0041EA0B0153460F
:100400005A46084313D0114653EA010019D0C8F1E7
:1004100040025046FFF789FF05460E4650465946B2
:10042000424600F039F8084305D0012004E0204698
:100430003946BDE8F08D0020054346EAE0762C43BE
:1004400037430A986305E40AA0EB08000022FD0A7E
:1004500044EA47540A3002D500200146E9E7010585
:1004600010196941DDE9084500196941BDE8F04D01
:10047000A2E70000064C074D06E0E06840F00103EB
:1004800094E8070098471034AC42F6D3FFF754FEC7
:100490006838000888380008202A04DB203A00FA6F
:1004A00002F1002070479140C2F1200320FA03F3CB
:1004B00019439040704721B1826842F00102826086
:1004C00003E0826822F001028260704721B18268F5
:1004D00042F48072826003E0826822F4807282605B
:1004E0007047014600208A6802F004020AB1012028
:1004F00000E000207047014600208A6802F00802F0
:100500000AB1012000E000207047000030B502462B
:100510000020002350680F4C20400D790C6844EAFD
:1005200005242043506090680B4C2040D1E90254D0
:100530002C434D7944EA450420439060D06A20F46E
:1005400070000C7C641EE4B2234340EA0350D06286
:1005500030BD0000FFFEF0FFFDF7F1FFF0B50446EF
:100560000D4600200021092D11DDE068A5F10A06E5
:1005700006EB4607072606FA07F18843A5F10A06A7
:1005800006EB460603FA06F10843E0600CE020693A
:1005900005EB4507072606FA07F1884305EB4506F4
:1005A00003FA06F108432061072A0FDA606B561E32
:1005B00006EB86071F2606FA07F18843561E06EB50
:1005C000860605FA06F10843606322E00D2A0FDA79
:1005D000206BD61F06EB86071F2606FA07F1884315
:1005E000D61F06EB860605FA06F10843206310E0E5
:1005F000E06AA2F10D0606EB86071F2606FA07F150
:100600008843A2F10D0606EB860605FA06F10843BB
:10061000E062F0BD816841F008018160704721B15E
:10062000826842F4A002826003E0826822F4A002A1
:1006300082607047816841F004018160704700006A
:1006400000B587B02020ADF8040000208DF8070029
:1006500001A92F4800F016FA4020ADF80400002050
:100660008DF8070001A92A4800F00CFA1020ADF817
:10067000040048208DF8070003208DF8060001A92A
:10068000234800F0FFF901214FF4017001F056F802
:100690004FF4004001F026F80020029001208DF870
:1006A0000C008DF80D004FF46020049000200590A0
:1006B00002208DF8180002A91648FFF727FF07232C
:1006C000012205211348FFF749FF072302220621D3
:1006D0001048FFF743FF01210E48FFF7F7FE012105
:1006E0000C48FFF7E8FE0B48FFF794FF00BF0948EE
:1006F000FFF701FF0028FAD10648FFF79BFF00BF74
:100700000448FFF7EEFE0028FAD107B000BD000054
:10071000000801400024014010B5012001F01EF83E
:10072000002001F01BF810BD08B501460020009024
:10073000034800900098084400900098008808BD85
:10074000006C004008B500220092044A0092009A12
:1007500002440092009A116008BD0000006C004045
:1007600000BFFEE72DE9F04780460F464FF0000935
:100770004FF0010A21E04FF0010AD8F800603E2155
:10078000012000F01DFA05461E21012000F018FA94
:1007900004460AE03078A84206D17078A04203D11E
:1007A0004FF00009CA4602E07668002EF2D100BF81
:1007B000BAF1000F01D04FF00109B9F1000FDAD002
:1007C00000263D707C706206110E6A06100E02F063
:1007D0006FF8BDE8F087000000B58BB00121084636
:1007E00000F08CFF114800F033F8114800901148D8
:1007F000019000200290142003900020049080209B
:10080000059040000690800007902020089000028C
:10081000099000200A906946044800F0BFF80121C1
:10082000024800F009F80BB000BD000008000240CB
:100830004C2401406005002021B1026842F0010211
:10084000026004E002684FF6FE731A4002607047CF
:1008500001684FF6FE7211400160002101604160A5
:100860008160C1604B49884208D14A4908394968CA
:1008700041F00F01474A083A51608AE04549143176
:10088000884208D143490839496841F0F001414A9A
:10089000083A51607DE03F492831884208D13D49FE
:1008A0000839496841F470613A4A083A516070E089
:1008B00038493C31884208D136490839496841F401
:1008C0007041344A083A516063E0324950318842FD
:1008D00008D130490839496841F470212D4A083A55
:1008E000516056E02B496431884208D129490839C2
:1008F000496841F47001274A083A516049E02549A6
:100900007831884208D123490839496841F070613B
:10091000204A083A51603CE01F49884206D1011F35
:10092000096841F00F01021F116032E01A491431C9
:10093000884208D11849091F096841F0F001164A98
:10094000121F116025E014492831884208D112494C
:10095000091F096841F470610F4A121F116018E005
:100960000D493C31884208D10B49091F096841F4FF
:100970007041094A121F11600BE00749503188424B
:1009800007D10549091F096841F47021024A121F65
:1009900011607047080002400804024010B50022B0
:1009A000026847F6F0739A430C6A8B6823430C691C
:1009B00023434C6923438C692343CC6923434C6A0A
:1009C00023438C6A23431A430260CB6843600B685D
:1009D00083604B68C36010BD704738B50446256816
:1009E00000E06D68686861688842FAD160680078E4
:1009F0008DF80000606840788DF80100686801F0AB
:100A0000FBFF65600020616848609DF80120520688
:100A1000110E9DF800205206100E01F0FDFE38BDAB
:100A200070B5044625680CE06E686A785206110EAF
:100A30002A785206100E01F0EFFE284601F0DCFF86
:100A40003546002DF0D1002060602060207270BD1E
:100A500070B5002413E000250DE024B13F2C02D036
:100A60000DB11F2D05D16A06110E6206100E01F0A0
:100A70001FFF681CC5B2202DEFDB601CC4B2402CE8
:100A8000E9DB70BD2DE9F04102460025002600207B
:100A900000230024002791F803C00CF00F0591F803
:100AA00003C00CF0100CBCF1000F03D091F802C091
:100AB0004CEA050591F800C0BCF1000F31D0146874
:100AC00000202BE04FF0010C0CFA00F3B1F800C04D
:100AD0000CEA03069E4220D183004FF00F0C0CFA63
:100AE00003F7BC4305FA03FC4CEA040491F803C085
:100AF000BCF1280F06D14FF0010C0CFA00FCC2F833
:100B000014C00AE091F803C0BCF1480F05D14FF0C2
:100B1000010C0CFA00FCC2F810C0401C0828D1D30C
:100B20001460B1F800C0BCF1FF0F34DD5468002040
:100B30002EE000F1080C4FF0010808FA0CF3B1F8B0
:100B400000C00CEA03069E4221D183004FF00F0C37
:100B50000CFA03F7BC4305FA03FC4CEA040491F8D1
:100B600003C0BCF1280F05D100F1080C08FA0CF8FD
:100B7000C2F8148091F803C0BCF1480F07D100F10E
:100B8000080C4FF0010808FA0CF8C2F81080401C5D
:100B90000828CED35460BDE8F08102460020936857
:100BA0000B400BB1012000E000207047416170470D
:100BB0000161704701480078704700004400002040
:100BC00030B502468B1A5B1C044C247894FBF3F579
:100BD00003FB15431344D8B230BD0000430000208E
:100BE00000BFFEE770B506460C46082002F002F88A
:100BF000054600206860207828706078687030684A
:100C00006860356062785206110E22785206100E26
:100C100001F04EFE70BD0146CA1701EB92729210B0
:100C20001AB9642291FBF2F242B9642291FBF2F20A
:100C300032B94FF4C87291FBF2F20AB90120704741
:100C40000020FCE708B50121442000F077FD1820C2
:100C5000ADF8000048208DF8030069460648FFF70C
:100C600011FF0120ADF8000028208DF8030069462F
:100C70000248FFF707FF08BD0018014000080140C7
:100C800010B5044614B101202349087022480078A9
:100C900058B310212148FFF780FF50B108211F48A9
:100CA000FFF77BFF28B101211D48FFF776FF0128E0
:100CB0001BD10A2001F07AFE00201749087010218C
:100CC0001648FFF76AFF08B9012010BD0821134834
:100CD000FFF763FF08B90220F7E701211048FFF78B
:100CE0005CFF012815D10320EFE710210B48FFF727
:100CF00054FF01280DD108210848FFF74EFF0128B5
:100D000007D101210648FFF748FF10B90120024929
:100D100008700020D9E700003000002000180140D2
:100D20000008014008B50121482000F007FD2020FF
:100D3000ADF8000010208DF8030003208DF80200AC
:100D400069460948FFF79EFE20210748FFF730FF5C
:100D50002020ADF8000069460448FFF793FE2021EB
:100D60000248FFF725FF08BD000C014000180140B4
:100D700000BFFEE77047000070B5002100230F227E
:100D8000C47804B3154C246804F4E064C4F5E0644A
:100D9000210AC1F10403CA40447804FA03F18478BB
:100DA0001440214309010E4C0678A155047804F043
:100DB0001F050124AC4005786D11AD0005F1E0255B
:100DC000C5F8004109E0047804F01F050124AC4097
:100DD000044D0678761145F8264070BD0CED00E014
:100DE00000E400E080E100E002490143024A1160B2
:100DF000704700000000FA050CED00E070B500241B
:100E000019E004F1B001C8B2002100F04FFA00214E
:100E1000084600F04BFA0021102000F047FA0025A8
:100E200005E00121002000F041FA681CC5B2802DC8
:100E3000F7DB601CC4B2082CE3DB70BD08B50121F0
:100E4000282000F07BFC4FF4A060ADF800001020DB
:100E50008DF8030003208DF8020069464648FFF72D
:100E600011FE0120ADF8000069464448FFF70AFE74
:100E70004FF4A040ADF8000069464148FFF702FE7C
:100E80004FF480713C48FFF791FE642001F08EFD25
:100E90004FF480713848FFF78BFE642001F086FD27
:100EA0000021AE2000F002FA0021D52000F0FEF96A
:100EB0000021502000F0FAF90021A82000F0F6F9F6
:100EC00000213F2000F0F2F90021D32000F0EEF9DC
:100ED0000021084600F0EAF90021402000F0E6F980
:100EE00000218D2000F0E2F90021142000F0DEF94D
:100EF0000021202000F0DAF90021022000F0D6F9CC
:100F00000021A12000F0D2F90021C82000F0CEF984
:100F10000021DA2000F0CAF90021122000F0C6F901
:100F20000021812000F0C2F90021EF2000F0BEF97D
:100F30000021D92000F0BAF90021F12000F0B6F923
:100F40000021DB2000F0B2F90021302000F0AEF9E2
:100F50000021A42000F0AAF90021A62000F0A6F9A3
:100F60000021AF2000F0A2F9FFF748FF002108465A
:100F700000F008F808BD000000140140000C01401A
:100F80000018014070B504460D4605F1B001C8B225
:100F9000002100F08BF904F00F00002100F086F929
:100FA000102141EA1410002100F080F970BD00000A
:100FB0002DE9F04780460E4691461F460024002545
:100FC000A9F12000C4B2B8F17F0F02DDA846B01C21
:100FD000C6B231464046FFF7D5FF002511E03FB9C4
:100FE00005EB0411174A505C012100F05FF906E09F
:100FF00005EB0411134A505C012100F09BF9681CB9
:10100000C5B2082DEBDB701CC1B24046FFF7BAFF3A
:10101000002513E047B905EB04110831094A505C7B
:10102000012100F043F907E005EB04110831054AFE
:10103000505C012100F07EF9681CC5B2082DE9DB87
:10104000BDE8F087603200082DE9F04781460F4681
:1010500015461E464FF0000839464846FFF792FFF6
:10106000002415E03EB91E4A02EB4511085D01213E
:1010700000F01CF906E01A4A02EB4511085D012157
:1010800000F058F908F1010000F0FF08601CC4B23C
:10109000102CE7DB781CC1B24846FFF773FF002431
:1010A00019E04EB96900491C0D4A02EB0111085DB7
:1010B000012100F0FBF808E06900491C084A02EB36
:1010C0000111085D012100F035F908F1010000F07F
:1010D000FF08601CC4B2102CE3DBBDE8F087000001
:1010E000402F00082DE9FF4F81B0064691461F466C
:1010F000DDE90E5A00200090002444E0381B401E19
:10110000C1B20A2001F0ACFDB9FBF0F00A21B0FB3E
:10111000F1F201FB1208009820BB781EA04221DDED
:10112000B8F1000F1CD1BAF1000F0CD1AB4605EBA2
:10113000DB71491001FB0461C8B22022109B0299A7
:10114000FFF736FF0BE0AB4605EBDB71491001FB07
:101150000461C8B23022109B0299FFF729FF10E00A
:1011600001200090AB4605EBDB71491001FB0461E7
:10117000C8B208F13001CAB2109B0299FFF718FFFC
:1011800000BF601CC4B2BC42B8DB05B0BDE8F08F44
:101190002DE9F04706460F4690469A463446B94632
:1011A000454614E02A78534649462046FFF700FF9B
:1011B00004F10800C4B2802C08DA04F10800802889
:1011C00004DD002409F1010000F0FF096D1C2878FE
:1011D0000028E7D1BDE8F0872DE9FE4304460E461E
:1011E00017461D46DDF8288004F10F01C8B2002320
:1011F0003A223146FFF7DCFE04F12501C8B2002394
:101200003A223146FFF7D4FE0020012110220223AA
:10121000CDE9002102903A4631462046FFF762FFB1
:10122000002001211022CDE90021029004F11601D5
:10123000C8B202232A463146FFF754FF002001219D
:101240001022CDE90021029004F12C01C8B2022342
:1012500042463146FFF746FFBDE8FE832DE9F05FC9
:1012600006460F4690469946DDF828B03446BA4601
:10127000002516E018F805205B4651462046FFF78A
:10128000E3FE04F11000C4B2802C03DC04F1100072
:10129000802804DD00240AF1010000F0FF0A681C28
:1012A000C5B24D45E6DBBDE8F09F000070B50446D1
:1012B0000E462EB14FF480411B48FFF779FC04E045
:1012C0004FF480411848FFF771FC4FF480511648E5
:1012D000FFF76CFC002519E001211448FFF766FCBC
:1012E00004F0800028B14FF480611148FFF760FCE2
:1012F00004E04FF480610E48FFF758FC01210B48D1
:10130000FFF756FC6006040E681CC5B2082DE3DB2F
:101310004FF480510448FFF74BFC4FF480410248E2
:10132000FFF746FC70BD000000180140000C0140B2
:101330000014014070B504460E462EB14FF48041B2
:101340001B48FFF735FC04E04FF480411848FFF7D5
:101350002DFC4FF480511648FFF728FC002519E0BA
:1013600001211448FFF722FC04F0800028B14FF45B
:1013700080611148FFF71AFC04E04FF480610E48C9
:10138000FFF716FC01210B48FFF712FC6006040E64
:10139000681CC5B2082DE3DB4FF480510448FFF709
:1013A00007FC4FF480410248FFF702FC70BD0000CB
:1013B00000180140000C0140001401402DE9FF5FBE
:1013C0004FF0000A002430E04FF0000AD1460BE055
:1013D0001F4800EB890030F8140050441FFA80FACF
:1013E00009F1010000F0FF09B9F10A0FF0DB5046E6
:1013F000FEF76AFF17490190FEF7B6FE8346FEF737
:1014000081FF4FF06632144BCDE90201FEF7EAFE90
:1014100007460022114BFEF7E5FE0546FEF759FF91
:101420000F4921F81400601CC4B2022CCCDB0D481B
:10143000006818B900200A49888002E001200849A4
:1014400088800A2001F0B2FA054804B0BDE8F09F98
:10145000600500200000204766660A4000005940F1
:10146000600000201001214201490862704700001D
:1014700000000E4202214176017609494160094986
:10148000016109494161094981600949C16009490E
:101490000978017007490978491C064A117070479C
:1014A00054000020580000205A0000205C0000205A
:1014B0005E00002053000020704700002DE9F0413D
:1014C0008AB00425042701244FF0000881A3D3E942
:1014D0000012D3E90203CDE90403CDE90212002092
:1014E000062302AA014600901020FFF7B7FE012054
:1014F00002230DF10E02194600903020FFF7AEFED8
:101500000020022304AA042100903020FFF7A6FE49
:10151000002002230DF11202062100903020FFF777
:101520009DFED6E00020FFF7ABFB0646012E1AD148
:101530000020009003A8022303FB04026006010EB2
:101540003020FFF78BFE601EC4B2002C00DC0324A9
:101550000120009003A8022303FB04026006010E91
:101560003020FFF77BFE022E00D1A046032E1AD1B9
:101570000020009003A8022303FB04026006010E72
:101580003020FFF76BFE601CC4B2032C00DD012489
:101590000120009003A8022303FB04026006010E51
:1015A0003020FFF75BFEB8F1030F05D1FFF726FCF3
:1015B00000200AB0BDE8F081B8F1020F39D1FFF781
:1015C0001DFC4FF00008012431E00020FFF758FB1C
:1015D00006460020032305AA194600902820FFF79D
:1015E0003DFE26B3FFF70AFC0020062302AA0146AF
:1015F00000901020FFF732FE012002230DF10E02B1
:10160000194600903020FFF729FE0020022304AA8B
:10161000042100903020FFF721FE002002230DF16D
:101620001202062100903020FFF718FE00E0CCE700
:1016300000BFB8F1010F4CD1FFF7E0FB06A907A8E6
:1016400000F0D8FD44E02F46FFF7B4FA05463DB15F
:1016500037B17819032802D0E819072800D13D4690
:1016600002E0FFF7A7FA0546002DFAD02A4606A9A0
:1016700007A800F03FFD98B906A907A801F0E4F912
:10168000002602E0FFF796FA05460DB1002EF9D0CC
:10169000FFF7B4FBFFF712FFFFF7B0FB002088E76E
:1016A000C82001F083F9C82001F080F9C82001F0BA
:1016B0007DF9C82001F07AF9C82001F077F9C82037
:1016C00001F074F9C82001F071F9C82001F06EF939
:1016D000B9E727E70607080900010A0B05121011F0
:1016E000130A140001460020034A506820F44040C9
:1016F00008435060704700000010024029B1064ABC
:1017000052690243044B5A6104E0034A526982431E
:10171000014B5A61704700000010024029B1064A8F
:10172000D2690243044BDA6104E0034AD26982437E
:10173000014BDA61704700000010024029B1064AEF
:1017400092690243044B9A6104E0034A926982431E
:10175000014B9A6170470000001002400149086087
:10176000704700004004424230B5002100220024AE
:1017700000232D4D6D6805F00C0121B1042905D021
:10178000082923D105E0294D056022E0274D056099
:101790001FE0254D6D6805F47012234D6D6805F44A
:1017A0008034022505EB92421CB9214D554305605A
:1017B0000BE01D4D6D6805F400351DB11C4D554302
:1017C000056002E0194D5543056002E0174D0560C4
:1017D00000BF00BF144D6D6805F0F0010909154DFB
:1017E0006B5C0568DD4045600F4D6D6805F4E06198
:1017F000090A104D6B5C4568DD4085600A4D6D68D7
:1018000005F46051C90A0B4D6B5C4568DD40C5604D
:10181000054D6D6805F44041890B074D6B5CC5684B
:10182000B5FBF3F5056130BD0010024000127A00EF
:1018300000093D001C0000202C00002010B50146CE
:101840000022002300204A11012A02D1094C2368FA
:1018500006E0022A02D1074C236A01E0054C636AC4
:1018600001F01F02012494401C400CB1012000E053
:10187000002010BD0010024000210B4A11700A4ADE
:10188000203A82F82010012802D0042808D103E071
:101890000121054A117004E00521034A117000E09E
:1018A00000BF00BF704700002010024001490860DF
:1018B000704700003C0442420249096A0143014A60
:1018C0001162704700100240024909888143014AB1
:1018D00011807047042800400348008840F0100041
:1018E0000149088070470000042800400348008830
:1018F0004FF6EF7108400149088070470428004006
:1019000070B500260024002500F078F80646374818
:10191000B6FBF0F436480088A0423AD034490C8037
:1019200040F2B27510E02846FFF775F940B1B4F502
:10193000B77F02D3A4F5B77404E0681C85B206E053
:10194000A4F26D14681C85B2B4F5B67FEBD800BF65
:1019500028488580002516E026498888FFF75BF92E
:1019600030B1012D04D11D2C01D31D3C09E00CE048
:101970002148405DA04203D81F48405D241A00E082
:1019800003E0681C85B21C2CE6D200BF19498D719A
:10199000CC711648B6FBF0F100FB11644FF46160A6
:1019A000B4FBF0F0134908704FF46160B4FBF0F140
:1019B00000FB11403C21B0FBF1F00E4948704FF4A0
:1019C0006160B4FBF0F100FB11403C21B0FBF1F28F
:1019D00001FB1200074988700B46DA7999799888DB
:1019E00000F032F803490872002070BD80510100F8
:1019F0004E000020540500205C38000800210348F8
:101A00000188001F008841EA004070471C28004000
:101A100001460020034A12880A400AB1012000E072
:101A20000020704704280040054880780549087068
:101A3000034840784870024800788870084670472C
:101A40005405002050000020F0B503460C46154612
:101A5000642093FBF0F0C6B2642093FBF0F700FB28
:101A60001730C1B2132E02DD01F16400C1B2084685
:101A7000CF1701EB977701EBA707BAB2072092FBCC
:101A8000F0F700FB172082B25719601EDFF82CC058
:101A90001CF80000384482B2CF1701EB9777BF10D3
:101AA000A1EB87071FB9032C01DA501E82B2072071
:101AB00092FBF0F700FB1720C0B2F0BD50380008D1
:101AC00010B50120FFF7A4FF08B1FFF719FF0220AE
:101AD000FFF79EFF20B10220FFF7F6FEFFF710FF91
:101AE0000520FFF7F1FE00F00BF910BD29B1064A01
:101AF00012880243044B1A8004E0034A128882438E
:101B0000014B1A8070470000002800401CB50024DB
:101B100001214FF0C050FFF701FE0120FFF7A4FCA8
:101B20000420FEF701FE45F25001884240D0FEF746
:101B3000F3FD0120FFF7A0FE04E0601CC4B20A2000
:101B400000F034FF4120FFF779FE08B9FA2CF4DBEE
:101B5000FA2C01DB01201CBD4FF48070FFF7ACFEB6
:101B60000120FFF7A3FE00F0CBF800F0D3F801212D
:101B70000846FFF7BBFF00F0C3F8FFF7ADFE47F6DE
:101B8000FF7000F0ADF800F0BBF8182023210D2302
:101B90000246CDE90010022140F2E47000F02EF878
:101BA000FFF7A4FE45F250010420FEF7CBFD07E04D
:101BB00000F0A6F801210846FFF798FF00F0A0F812
:101BC00000F00CF8FFF79CFE222003494872032026
:101BD00088720020BFE700005405002008B50320EC
:101BE0008DF8000000208DF801008DF80200012022
:101BF0008DF803006846FFF7BFF808BD2DE9F05FD8
:101C000006460F4690469946DDE90AAB002440F2AD
:101C1000B270864203DB40F63300864202DD0120CB
:101C2000BDE8F09F40F2B2750AE02846FEF7F3FFE8
:101C300010B12048044401E01F480444681C85B2E8
:101C4000B542F2DB781EC7B2002510E01B48405DAC
:101C500040F2A321484304EBC0143046FEF7DBFFFB
:101C600018B1012D01D116480444681C85B2BD424B
:101C7000ECDBA8F1010040F2A321484304EBC014BF
:101C8000C9EB4910C0EB092004EB0014CAEB0A10A1
:101C900004EB80045C4401214FF0C050FFF73EFD8F
:101CA0000120FFF7E1FB204600F00CF800F028F8D7
:101CB0000020B5E70085E2018033E1015C380008CF
:101CC0008051010000B50246FFF706FE100C0349E3
:101CD0000880091D0A80FFF709FE00BD1828004092
:101CE00000B50246FFF7F8FDC2F303400349088040
:101CF000091D0A80FFF7FAFD00BD0000082800401A
:101D000000BF0348008800F020000028F9D0704789
:101D100004280040074800884FF6F771084005493D
:101D2000088000BF0348008800F008000028F9D0B0
:101D3000704700000428004070470000F0B51546C9
:101D40000C46CE1701EB5676C6F3C702CE1701EB51
:101D50005676F610A1EBC606F3B2CDB1194C04EBE2
:101D6000C214245C03269E403443164E06EBC21672
:101D70003454144C04EBC216441C345D03269E40BC
:101D80003443E6B20F4C04EBC217441C3E5517E037
:101D90000C4C04EBC214265C03249C40A643094C63
:101DA00004EBC2142654074C04EBC216441C345DE9
:101DB00003269E40B443034E06EBC217461CBC5597
:101DC000F0BD00005401002010B500F001F810BD76
:101DD0000CB50020019000903348006840F480303A
:101DE0003149086000BF3048006800F400300090BE
:101DF0000198401C0190009818B90198B0F5A06FA7
:101E0000F1D12948006800F4003010B101200090A1
:101E100001E0002000900098012843D12348006889
:101E200040F01000214908600846006820F00300D7
:101E300008600846006840F0020008601A484068E0
:101E4000194948600846406848600846406840F4C0
:101E5000806048600846406820F47C10486008466E
:101E6000406840F4E81048600846006840F0807020
:101E7000086000BF0C48006800F000700028F9D02E
:101E80000948406820F00300074948600846406858
:101E900040F00200486000BF0348406800F00C00BA
:101EA0000828F9D10CBD00000010024000200240BB
:101EB0002DE9FE4F0024A246A1460027002378A268
:101EC00019460520FFF764F9E5E0FFF7ADFD05468B
:101ED000FA2F19DD01201022CDE9002004EB440384
:101EE00003EBC4034FF02C0CACEB4303DFF8C0C191
:101EF00002909CF809C06344D8B22A5D6C4B997A71
:101F00000223FFF7EFF80EE069488078DFF8A0C100
:101F100000909CF801309CF800209CF80A109CF876
:101F20000900FFF759F90020FEF7AAFE0646012036
:101F3000FEF7A6FE8046012E05D1601CC4B2032C1C
:101F40007FDB00247DE0032E04D104B90324601E4E
:101F5000C4B276E0022E74D170E0C82F19DD0120E2
:101F60001022CDE9002004EB440303EBC4034FF03F
:101F70002C0CACEB4303DFF838C102909CF809C08D
:101F80006344D8B22A5D4A4B997A0223FFF7AAF834
:101F900019E000200121102204EB440303EBC403E9
:101FA0004FF02C0CACEB4303DFF804C1CDE900216A
:101FB00002909CF809C06344D8B22A5D3C4B997AE0
:101FC0000223FFF78FF80020FEF75AFE0646012E87
:101FD0000DD1285D401C2855285D3C2804DA022CD0
:101FE00026D1285D182823DB0020285520E0032E69
:101FF0000CD1285D30B9022C02D11820285501E0FF
:102000003C202855285D401E285511E0022E0FD196
:1020100028786978CDE90010AB78DFF894C09CF897
:1020200007209CF80610BCF80400FFF7E7FD07E066
:10203000781C87B2B7F5FA7F00DB00278DE700E058
:1020400000BFB8F1010F02D14FF0010A01E04FF0DB
:10205000000ABAF1010F07D1B8F1010F04D109F15B
:1020600001001FFA80F901E04FF00009B9F1640F97
:1020700005DBFEF7C3FE0F4800F022F80CE0781CE9
:1020800087B2B7F5FA7F06DB00270B480068C0432C
:102090000A49C1F8940118E700BFBDE8FE8F0000AF
:1020A00053657474696E672074696D652E2E2E00F9
:1020B00054050020700000209401234200002342B8
:1020C000F8B50446FEF79AFE00250FE000200090C8
:1020D000E7687F5D6668F219A668735D6669715D81
:1020E0002669705DFFF7BAF8681CC5B2022DEDDBFA
:1020F000F8BD0000F8B504460F4615462668012DC8
:102100000AD1206800788DF8000020684078401ED1
:10211000C0B28DF8010025E0022D0AD120680078B8
:102120008DF8000020684078401CC0B28DF8010096
:1021300018E0032D0AD120680078401EC0B28DF847
:102140000000206840788DF801000BE0042D09D1D3
:1021500020680078401CC0B28DF8000020684078EC
:102160008DF8010038789DF80010884214D17878F5
:102170009DF8011088420FD100201D490860694672
:102180002046FEF72FFD39462046FEF7EBFA207A6F
:10219000401C20720120F8BD0CE030789DF8001042
:1021A000884206D170789DF80110884201D1002044
:1021B000F1E77668002EF0D19DF8000000280BDDD5
:1021C0009DF800003F2807DA9DF80100002803DD94
:1021D0009DF801001F2801DB0020DCE7694620464E
:1021E000FEF700FD2046FEF7F8FB0120D3E70000D4
:1021F0009401234270B505460E46082000F0FAFC13
:1022000004462C606C6001202872002060601F2052
:1022100020700F20607062785206110E22785206EC
:10222000100E00F045FB082000F0E4FC04460020FE
:1022300060601E2020700F20607062785206110EC0
:1022400022785206100E00F033FB6C602868446060
:1022500002202872FEF7FCFB31462846FEF782FA80
:1022600070BD042808D14FF0E021096941F0040154
:102270004FF0E022116107E04FF0E021096921F001
:1022800004014FF0E02211617047704710B5134808
:10229000006840F001001149086008464068104994
:1022A00008400E494860084600680E4908400B493E
:1022B00008600846006820F48020086008464068EE
:1022C00020F4FE0048604FF41F008860FFF77CFD9B
:1022D0004FF000600449086010BD0000001002408B
:1022E0000000FFF8FFFFF6FE08ED00E010B5012149
:1022F0005B4800F006F901287ED1FEF7C1FC594980
:102300000870FFF75BF858490860564800780328C2
:1023100003D101205549087002E00020534908709C
:1023200052480078012809D14E480078032805D189
:102330004F480078401C4E49087002E000204C498C
:1023400008704B4800783C2803DBFEF757FDFFF789
:10235000AFFD4848007810B900204749087045484B
:10236000007848B140480068808828B90220424976
:1023700008700020414908703E480078002845D088
:10238000394800680088C8280EDC37480068008893
:10239000822809DB344800684088C82804DC3248B9
:1023A00000684088822831DA0020324908702E48BF
:1023B000006800882C490968498888420EDD2A484F
:1023C00000680088C82806DD03202B490870022019
:1023D0002A49087002E00420284908702248006851
:1023E000008821490968498888420FDA1E48006838
:1023F0000088822807DA00E02DE001201E490870DD
:102400001E49087002E003201C4908701648006845
:102410000088AA2814DA144800680088A0280FDD74
:10242000114800684088A0280ADD0F4800684088ED
:10243000AA2805DA00201049087001200D4908700B
:102440000F480078401C0E49087008460078FA28AA
:1024500001DB002008700121014800F043F810BDA5
:10246000000400400000002048000020410000203F
:10247000420000204C0000204000002044000020CA
:10248000430000207FB505460C4601210220FFF7DE
:1024900045F9ADF80850ADF804400020ADF80A0049
:1024A000ADF8060001A90E4800F046F801221146D9
:1024B0000B4800F037F81D208DF8000001208DF842
:1024C000010003208DF8020001208DF8030068460A
:1024D000FEF752FC0121024800F007F87FBD000022
:1024E00000040040CA430282704721B1028842F0D2
:1024F0000102028004E002884FF6FE731A40028057
:10250000704730B50246002000230024158A05EAF2
:102510000103958905EA010413B10CB1012000E023
:10252000002030BD1AB183890B43838102E0838987
:102530008B43838170470000002202881D4B984224
:102540000ED01D4B98420BD0B0F1804F08D01B4BE2
:10255000984205D01A4B984202D01A4B984204D1A7
:102560004FF68F731A404B881A43174B984207D087
:10257000164B984204D04FF6FF431A40CB881A43BB
:1025800002808B8883850B8803850A4B98420BD089
:10259000094B984208D00E4B984205D00D4B9842FB
:1025A00002D00D4B984201D10B7A0386012383821E
:1025B00070470000002C014000340140000400403E
:1025C00000080040000C00400010004000140040D3
:1025D00000400140004401400048014010B540F275
:1025E0002551204800F054F800283AD01D4800F04A
:1025F0000BF9C4B21C480068C0431C49C1F89401DF
:102600001B48008800F4004058BB1948008800F4BB
:10261000804060B10A2C03D000201549088020E0DA
:102620001348008840F400401149088019E00D2C3F
:1026300006D10F48008840F480400D49088010E022
:102640000B480088C0F30D000A490C540848008864
:10265000401C0749088008460088C72801DD002083
:10266000088010BD00380140948121420080214241
:102670003C0000208C00002021B1828942F40052ED
:10268000828104E082894DF6FF731A40828170478F
:1026900070B50246002400230025002040F66A168B
:1026A000B14200D100BFC1F3421501F01F03012662
:1026B00006FA03F3012D02D19689334006E0022D7C
:1026C00002D1168A334001E0968A33400C1201266B
:1026D00006FA04F41688344013B10CB1012000E06E
:1026E000002070BDF0B50346002400260025002020
:1026F00040F66A17B94200D100BF1846C1F3421430
:1027000001F01F06012707FA06F5012C01D10C3054
:1027100004E0022C01D1103000E014301AB1076837
:102720002F43076002E00768AF430760F0BD000079
:102730002DE9F04786B005460E460024A24600BFAC
:10274000A1460027B08900B100BF2F462C8A4CF665
:10275000FF700440F08804432C82AC894EF6F310DD
:102760000440B08831890843718908430443AC812F
:10277000AC8A4FF6FF400440B0890443AC8201A804
:10278000FEF7F2FF1F48874202D1DDF810A001E0FA
:10279000DDF80CA0A88900F4004040B10AEBCA00A3
:1027A00000EB0A1031684900B0FBF1F807E00AEBD2
:1027B000CA0000EB0A1031688900B0FBF1F8642010
:1027C000B8FBF0F004012009642101FB1089A889FD
:1027D00000F4004040B1322000EBC900B0FBF1F042
:1027E00000F00700044308E0322000EB09106421E8
:1027F000B0FBF1F000F00F0004432C8106B0BDE8FF
:10280000F08700000038014001468888C0F30800C6
:10281000704700BFFEE700002DE9F04104460D4679
:102820002846E91705EB5171C1F3C7062846E91799
:1028300005EB5171C910A5EBC101CFB21B4800EBEC
:10284000C610005D0321B9408843184901EBC61149
:102850000855164800EBC611601C085C0321B940FE
:102860008843124901EBC612611C50543146204680
:10287000FEF788FB0D4901EBC611085D0121FEF74B
:1028800015FD611CC8B23146FEF77CFB074901EB20
:10289000C612611C505C0121FEF708FD002229468A
:1028A0002046FFF74BFABDE8F081000054010020FC
:1028B0002DE9F04104460D462846E91705EB517114
:1028C000C1F3C7062846E91705EB5171C910A5EBFE
:1028D000C101CFB21B4800EBC610005D0321B94017
:1028E0000843184901EBC6110855164800EBC611FC
:1028F000601C095C0320B8400143124800EBC6127B
:10290000601C115431462046FEF73CFB0D4901EB9B
:10291000C611085D0121FEF7C9FC611CC8B2314631
:10292000FEF730FB074901EBC612611C505C012128
:10293000FEF7BCFC012229462046FFF7FFF9BDE85F
:10294000F08100005401002002E008C8121F08C1F5
:10295000002AFAD170477047002001E001C1121F20
:10296000002AFBD17047000010B56FF00400FFF79C
:1029700078FC0A4800680A49B0FBF1F00949087080
:102980000846007800EB4001C1EBC0104FF6FF7124
:1029900001EAC0000449088010BD000004000020C6
:1029A00000127A00180000201A0000200146114A87
:1029B00012884A434FF0E0235A6100229A611A4676
:1029C000126942F001021A6100BF4FF0E022106963
:1029D00000F001021AB100F48032002AF5D04FF065
:1029E000E022126922F001024FF0E0231A61002276
:1029F0009A6170471A00002010B5002821D0114BB1
:102A00000022001F196803E0814203D80A46496882
:102A10000029F9D152B11368841A9C4204D100688C
:102A200018441060104602E0506000E0186039B1B0
:102A300002680B1A934203D10B681A44026049687A
:102A4000416010BD68000020FEB505460C4600BF81
:102A5000287A801E00EB80004006060E642096FB5C
:102A6000F0F72846FDF7DCFF62785206110E227857
:102A70005206100EFFF7D0FE00231A460221202036
:102A8000FEF7E2FA0023012202213020FEF7DCFAF1
:102A90000023022211464020FEF7D6FA002303222B
:102AA00002215020FEF7D0FA0023042211462020F4
:102AB000FEF7CAFA0023052204213020FEF7C4FAEB
:102AC00000201022CDE900200290B81CC3B232468B
:102AD00004214120FEF706FBFEBD00001CB53EA010
:102AE000006801900026FFF711F8FFF73DFF4FF453
:102AF000A060FEF779F94FF4E13000F0BDF847210E
:102B000041F28730FFF7BEFCFEF70CF9FEF79AF8AA
:102B1000FEF794F9FEF772F93048FEF7ABFC2F4848
:102B2000FFF7CEFAFDF78CFDFDF756FE01212C488C
:102B3000FDF775FD4EE00120FEF7A2F80446022CD9
:102B400035D1FEF75BF900242FE00020FEF798F85E
:102B500004460120FEF794F8224908700020022361
:102B600001AA062100903020FEF778FB1D4800786E
:102B7000012802D1681CC5B200E00025142D05DB38
:102B8000FEF73CF91548FFF79BFA0FE0012C01D145
:102B9000701CC6B2032C01D1701EC6B2022C01D12A
:102BA000FEF78CFC1420FFF701FFCEE700BF0E48B4
:102BB00080780D4F00907B783A78B97A787AFEF772
:102BC0000BFB0A480068C0430949C1F89401C820BA
:102BD000FFF7ECFEAFE700000001000070000020EE
:102BE00000240140000000205405002094012342ED
:102BF00000002342F0B50B30154D20F007010024F2
:102C0000144A0FE003688B420BD38B4205D95E1A3E
:102C100043184768C3E9006700E04368136002C0D7
:102C200004E0021D10680028ECD12046002802D1E3
:102C3000286808B10020F0BD064A07481060074A1E
:102C4000121A22F00702C0E9002401202860D7E709
:102C50006C000020680000208C0500208807002000
:102C600010B50246012000E050430B1EA1F1010403
:102C7000E1B2F9D110BD000010B586B004460121C3
:102C800044F20400FEF75AFD4FF40070ADF8140052
:102C900003208DF8160018208DF8170005A91C4890
:102CA000FDF7F0FE4FF48060ADF8140004208DF8BD
:102CB000170005A91648FDF7E5FE25208DF8000050
:102CC00003208DF801008DF8020001208DF803002B
:102CD0006846FEF751F801940020ADF80800ADF801
:102CE0000A00ADF80C00ADF810000C20ADF80E0095
:102CF00001A90848FFF71CFD012240F225510548B3
:102D0000FFF7F0FC01210348FFF7B6FC06B010BD49
:102D100000080140003801400000000000000000F1
:102D2000002F000000000700070000147F147F142C
:102D300000242A7F2A1200626408132300364955B2
:102D4000225000000503000000001C22410000008A
:102D500041221C000014083E08140008083E080820
:102D6000000000A06000000808080808000060607B
:102D70000000002010080402003E5149453E0000BA
:102D8000427F4000004261514946002141454B319C
:102D9000001814127F10002745454539003C4A4968
:102DA00049300001710905030036494949360006DA
:102DB0004949291E00003636000000005636000042
:102DC00000081422410000141414141400004122BD
:102DD000140800020151090600324959513E007C95
:102DE0001211127C007F49494936003E414141227F
:102DF000007F4141221C007F49494941007F090968
:102E00000901003E4149497A007F0808087F000017
:102E1000417F4100002040413F01007F08142241D2
:102E2000007F40404040007F020C027F007F04088A
:102E3000107F003E4141413E007F09090906003EE6
:102E40004151215E007F091929460046494949310F
:102E50000001017F0101003F4040403F001F204032
:102E6000201F003F4038403F0063140814630007F0
:102E70000870080700615149454300007F41410047
:102E800000552A552A55000041417F0000040201E7
:102E900002040040404040400000010204000020C5
:102EA00054545478007F4844443800384444442003
:102EB00000384444487F00385454541800087E09B0
:102EC00001020018A4A4A47C007F08040478000078
:102ED000447D4000004080847D00007F1028440035
:102EE0000000417F4000007C04180478007C080446
:102EF000047800384444443800FC24242418001882
:102F0000242418FC007C080404080048545454206D
:102F100000043F444020003C4040207C001C2040F6
:102F2000201C003C4030403C004428102844001C39
:102F3000A0A0A07C004464544C4414141414141431
:102F40001060028C0008F94EC820584F48C808008D
:102F500004047E8140300F407F0044847F040400DD
:102F60000008488808C838404040FF2022AC2000B4
:102F70000020100C03041880402017182641F00090
:102F80002030AC632018084848487F48484808006B
:102F900022672212121200FE4242424242FE00000A
:102FA0000404E424242424FF24242424E40404002A
:102FB00040402722120A06FF060A1222274040003C
:102FC000001088C43300BEAAAAAAAAAABE80000024
:102FD000020100FF00020A120242827F0202020086
:102FE000804020908886808080838C1020408000E4
:102FF000008040201807004080403F000000000093
:103000002020101028242229B2642810102020002B
:103010000080809F4141211D0121215F40800000EF
:1030200000FC0404FC20104C4B484848C808080029
:10303000000F04040F0030484442424140407000F9
:1030400000F808FF08F82018C808090E882818009A
:103050002063211F111930003F4442414040780055
:10306000000000E0000000FF0000002040800000A1
:10307000080403000040807F0000000000010E00F3
:1030800080828282FE8282828282FE8282828000AE
:10309000008040300F0000000000FF000000000032
:1030A0001010F01F10F00040E05847405060C00082
:1030B0004022150816210000FE42424242FE000056
:1030C000404042CC0000FC24A4242222A362000041
:1030D0000040201F20584750484542454850400076
:1030E0000000FE0202F2121212F20202FE000000C2
:1030F00000007F2020272424242720207F00000098
:1031000000FC848484FC001010101010FF101000CC
:10311000003F1010103F0000010640807F000000BB
:1031200000F8010600F0121212F2020202FE000084
:1031300000FF0000001F1111111F0040807F0000E0
:10314000404042CC0000FF4949C949497F80000006
:103150000040201F20405F48444041424558400005
:1031600000007C40404040FF40404040FC000000E8
:10317000007C40404040407F4040404040FC0000D8
:1031800090523410FF10345280708F0808F80800F5
:10319000829A566322528E008040330C3340800066
:1031A000001088C433404848487F48C84848400019
:1031B000020100FF00020A320242827F0202020084
:1031C0000000181610D0B8979090909294100000BC
:1031D0000020108C838041462810284443808000C2
:1031E000040444C44F4444C424242FB424040400DD
:1031F00040442424150C04FE040C152424444000EF
:103200000000F8494A4C48F8484C4A49F800000088
:1032100010101312121212FF1212121213101000B9
:103220001060028C00FE02F202FE00F800FF0000B7
:1032300004047E018047300F10270047807F000084
:10324000404042CC009090909090FF1011161000DA
:103250000000003F1028603F1010010E3040F000C9
:10326000000000000000000000000000000000005E
:10327000000000F8000000000000003330000000F3
:1032800000100C06100C06000000000000000000FA
:1032900040C07840C0784000043F04043F0404006C
:1032A000007088FC08300000001820FF211E00007C
:1032B000F008F000E018000000211C031E211E0091
:1032C00000F00888700000001E2123241927211017
:1032D00010160E00000000000000000000000000BA
:1032E000000000E018040200000000071820400061
:1032F00000020418E0000000004020180700000051
:10330000404080F0804040000202010F01020200B4
:10331000000000F0000000000101011F0101010098
:10332000000000000000000080B0700000000000FD
:103330000000000000000000000101010101010186
:10334000000000000000000000303000000000001D
:1033500000000000806018040060180601000000F2
:1033600000E010080810E000000F102020100F00EF
:10337000001010F8000000000020203F2020000076
:1033800000700808088870000030282422213000CE
:1033900000300888884830000018202020110E00D6
:1033A0000000C02010F8000000070424243F24007F
:1033B00000F80888880808000019212020110E0054
:1033C00000E0108888180000000F112020110E0066
:1033D00000380808C83808000000003F000000005E
:1033E0000070880808887000001C222121221C001F
:1033F00000E010080810E0000000312222110F0048
:10340000000000C0C00000000000003030000000DC
:10341000000000800000000000008060000000004C
:103420000000804020100800000102040810200065
:1034300040404040404040000404040404040400B0
:103440000008102040800000002010080402010045
:10345000007048080808F000000000303601000045
:10346000C030C828E810E0000718272423140B00F8
:103470000000C038E0000000203C23020227382072
:1034800008F8888888700000203F202020110E0056
:10349000C03008080808380007182020201008004D
:1034A00008F808080810E000203F202020100F0036
:1034B00008F88888E8081000203F20202320180002
:1034C00008F88888E8081000203F2000030000006A
:1034D000C03008080838000007182020221E02000B
:1034E00008F808000008F808203F210101213F20CA
:1034F000000808F8080800000020203F20200000F5
:1035000000000808F8080800C08080807F000000E4
:1035100008F888C028180800203F2001263820001D
:1035200008F8080000000000203F20202020300084
:1035300008F8F800F8F80800203F003F003F20009E
:1035400008F830C00008F808203F200007183F00A6
:10355000E01008080810E0000F10202020100F00D5
:1035600008F808080808F000203F210101010000C8
:10357000E01008080810E0000F18242438504F000D
:1035800008F8888888887000203F2000030C3020CD
:1035900000708808080838000038202121221C000B
:1035A000180808F8080818000000203F2000000054
:1035B00008F808000008F808001F202020201F003D
:1035C0000878880000C83808000007380E0100009D
:1035D000F80800F80008F800033C0700073C030067
:1035E000081868808068180820302C03032C3020CD
:1035F0000838C800C83808000000203F200000003C
:1036000010080808C8380800203826212020180093
:10361000000000FE020202000000007F4040400067
:10362000000C30C000000000000000010638C0009F
:1036300000020202FE000000004040407F00000047
:10364000000004020202040000000000000000006C
:10365000000000000000000080808080808080806A
:103660000002020400000000000000000000000052
:1036700000008080808000000019242222223F2048
:1036800008F8008080000000003F112020110E008B
:103690000000008080800000000E1120202011001A
:1036A000000000808088F800000E112020103F20CC
:1036B0000000808080800000001F22222222130050
:1036C000008080F0888888180020203F202000009B
:1036D0000000808080808000006B94949493600050
:1036E00008F8008080800000203F210000203F205B
:1036F00000809898000000000020203F202000005B
:10370000000000809898000000C08080807F00004A
:1037100008F8000080808000203F24022D30200027
:10372000000808F8000000000020203F20200000D2
:103730008080808080808000203F20003F20003FEC
:103740008080008080800000203F210000203F20FA
:103750000000808080800000001F202020201F00AB
:10376000808000808000000080FFA12020110E00DA
:103770000000008080808000000E112020A0FF80CB
:10378000808080008080800020203F212000010078
:1037900000008080808080000033242424241900CD
:1037A000008080E0808000000000001F20200000DA
:1037B0008080000000808000001F202020103F201B
:1037C000808080000080808000010E3008060100AB
:1037D00080800080008080800F300C030C300F0050
:1037E00000808000808080000020312E0E3120007B
:1037F000808080000080808080818E7018060100AB
:1038000000808080808080000021302C22213000C8
:1038100000000000807C020200000000003F4040E9
:1038200000000000FF00000000000000FF0000009A
:103830000002027C800000000040403F00000000C9
:103840000006010102020404000000000000000064
:103850000003030601040602050003051F1C1F1ECA
:103860001F1E1F1F1E1F1E1F88380008000000207B
:103870007000000048290008F83800087000002097
:10388000180B0000582900080000000000A24A049C
:103890000000000000000000010203040607080900
:1038A0000000000000000000010203040102030404
:1038B00006070809020406080100000000000000D5
:1038C00000000000000000000000000004040000F0
:1038D000000000000100000000000000151617188D
:1038E0000060060602020002000000000000000066
:0838F0000000000000000000D0
:0400000508000145A9
:00000001FF
